:100000000C945D000C9485000C9485000C94850084
:100010000C9485000C9485000C9485000C9485004C
:100020000C9485000C9485000C9485000C9485003C
:100030000C9485000C9485000C9485000C9485002C
:100040000C94EC020C9485000C94BA020C9494026B
:100050000C9485000C9485000C9485000C9485000C
:100060000C9485000C9485000000000024002700FB
:100070002A0000000000250028002B0004040404CE
:100080000404040402020202020203030303030342
:10009000010204081020408001020408102001021F
:1000A00004081020000000080002010000030407FB
:1000B0000000000000000000360311241FBECFEF37
:1000C000D8E0DEBFCDBF22E0A2E4B1E001C01D92C6
:1000D000AD33B207E1F711E0A0E0B1E0E0E9FBE009
:1000E00002C005900D92A234B107D9F710E0CDE51A
:1000F000D0E004C02197FE010E94BB05CC35D1079A
:10010000C9F70E9475030C94C6050C940000E1EB3E
:10011000F0E02491EDE9F0E09491E9E8F0E0E49179
:10012000EE2309F43BC0222339F1233091F038F457
:100130002130A9F0223001F524B52F7D12C02730DF
:1001400091F02830A1F02430B9F4209180002F7D67
:1001500003C0209180002F77209380000DC024B52C
:100160002F7724BD09C02091B0002F7703C02091C4
:10017000B0002F7D2093B000F0E0EE0FFF1FEE588F
:10018000FF4FA591B4912FB7F894EC91811103C062
:1001900090959E2301C09E2B9C932FBF0895E8E568
:1001A000F1E0A089B18982E08C93A485B5851C9289
:1001B000A685B7858FEC8C93108EA489B58986E0CF
:1001C0008C93A289B3898C9180618C93A289B38925
:1001D0008C9188608C93A289B3898C9180688C9370
:1001E0000288F389E02D80818F7D80830895CF92EE
:1001F000DF92EF92FF920F931F93CF93DF936C01E7
:100200007A018B01C0E0D0E0CE15DF0589F0D8017E
:100210006D918D01D601ED91FC910190F081E02D61
:10022000C6010995892B11F47E0102C02196ECCFFD
:10023000C701DF91CF911F910F91FF90EF90DF9059
:10024000CF900895089580E090E00895FC01538DCB
:10025000448D252F30E0842F90E0821B930B5417A0
:1002600010F0CF96089501970895FC01918D828D2D
:10027000981761F0828DDF01A80FB11D5D968C91FA
:10028000928D9F5F9F73928F90E008958FEF9FEF05
:100290000895FC01918D828D981731F0828DE80FC1
:1002A000F11D858D90E008958FEF9FEF0895FC017B
:1002B000918D228D892F90E0805C9F4F821B910948
:1002C0008F739927089588E591E00E94570121E0F6
:1002D000892B09F420E0822F0895FC01848DDF0131
:1002E000A80FB11DA35ABF4F2C91848D90E00196A9
:1002F0008F739927848FA689B7892C93A089B18998
:100300008C9180648C93938D848D981306C00288A1
:10031000F389E02D80818F7D80830895EF92FF9295
:100320000F931F93CF93DF93EC0181E0888F9B8D18
:100330008C8D981305C0E889F989808185FD24C0DA
:10034000F62E0B8D10E00F5F1F4F0F731127E02E5D
:100350008C8DE8120CC00FB607FCFACFE889F9893A
:10036000808185FFF5CFCE010E946D01F1CF8B8D8D
:10037000FE01E80FF11DE35AFF4FF0820B8FEA896F
:10038000FB898081806207C0EE89FF896083E889EC
:10039000F98980818064808381E090E0DF91CF9152
:1003A0001F910F91FF90EF900895CF93DF93EC0191
:1003B000888D8823C9F0EA89FB89808185FD05C085
:1003C000A889B9898C9186FD0FC00FB607FCF5CFBF
:1003D000808185FFF2CFA889B9898C9185FFEDCF07
:1003E000CE010E946D01E7CFDF91CF91089580E0AB
:1003F00090E0892B29F00E94630181110C94000088
:1004000008952FB7F8946091470170914801809149
:10041000490190914A012FBF08958F929F92AF9208
:10042000BF92CF92DF92EF92FF926B017C010E940C
:1004300001024B015C01C60ED71EE81EF91E0E9488
:100440000102681579058A059B0528F0C616D706AE
:10045000E806F906A0F7FF90EF90DF90CF90BF90ED
:10046000AF909F908F9008950E94C105611571050E
:1004700079F0FB0101900020E9F73197AF01461BAD
:10048000570BDC01ED91FC910280F381E02D099482
:1004900080E090E008954F925F926F927F92EF928A
:1004A000FF920F931F93CF93DF93CDB7DEB7A19742
:1004B0000FB6F894DEBF0FBECDBF7C01FA01CB01B1
:1004C00019A2223008F42AE08E010F5D1F4F422E40
:1004D000512C612C712CBF01A30192010E9499053E
:1004E000F901CA01015011096A3014F4605D01C0BC
:1004F000695CD8016C93232B242B252B61F7B80161
:10050000C7010E943602A1960FB6F894DEBF0FBE57
:10051000CDBFDF91CF911F910F91FF90EF907F9012
:100520006F905F904F9008951F920F920FB60F92A9
:1005300011242F933F934F935F936F937F938F93E8
:100540009F93AF93BF93EF93FF9388E591E00E9451
:100550006D01FF91EF91BF91AF919F918F917F912D
:100560006F915F914F913F912F910F900FBE0F9020
:100570001F9018951F920F920FB60F9211242F9370
:100580008F939F93EF93FF93E0916801F09169013E
:100590008081E0916E01F0916F0182FD12C0908127
:1005A000809171018F5F8F7320917201821751F0DA
:1005B000E0917101F0E0E85AFE4F958F8093710150
:1005C00001C08081FF91EF919F918F912F910F90AA
:1005D0000FBE0F901F9018951F920F920FB60F929B
:1005E00011242F933F938F939F93AF93BF93809149
:1005F000470190914801A0914901B0914A01309181
:10060000460123E0230F2D3720F40196A11DB11DD3
:1006100005C026E8230F0296A11DB11D20934601B7
:100620008093470190934801A0934901B0934A01F8
:100630008091420190914301A0914401B091450104
:100640000196A11DB11D8093420190934301A09397
:100650004401B0934501BF91AF919F918F913F911C
:100660002F910F900FBE0F901F901895E8E5F1E0C5
:100670001382128288EE93E0A0E0B0E08483958339
:10068000A683B78384E091E09183808385EC90E03A
:100690009587848784EC90E09787868780EC90E04C
:1006A000918B808B81EC90E0938B828B82EC90E03D
:1006B000958B848B86EC90E0978B868B118E128EB7
:1006C000138E148EE5EFF1E01682178210861186E4
:1006D000128613861486158616861786108A118A46
:1006E000128A138A148A158A0895789484B58260D0
:1006F00084BD84B5816084BD85B5826085BD85B5C6
:10070000816085BD80916E00816080936E00109243
:1007100081008091810082608093810080918100BE
:10072000816080938100809180008160809380004F
:100730008091B10084608093B1008091B0008160AD
:100740008093B00080917A00846080937A008091D9
:100750007A00826080937A0080917A008160809331
:100760007A0080917A00806880937A001092C100AC
:100770001092390210923A0210923B0210923C02FF
:100780001092F7011092F8011092F9011092FA01FB
:1007900068EB7BE080E090E00E940D0288E591E04C
:1007A00090933802809337020E94CF000E9401028A
:1007B0006093F7017093F8018093F9019093FA0127
:1007C00062E171E080913702909138020E94360216
:1007D0006AE070E080E090E00E940D0281E080938A
:1007E0000B02EDE9F0E02491E9E8F0E08491882340
:1007F00099F090E0880F991FFC01E859FF4FA591EF
:10080000B491FC01EE58FF4F859194918FB7F89405
:10081000EC91E22BEC938FBF0E94CF0034EFC32EFC
:10082000DD24D394E12CF12CC0E4D1E00E9401023C
:10083000672B682B692B41F40E940102623071051D
:100840008105910508F40BC10E94010260935401D7
:1008500070935501809356019093570180905001F9
:1008600090905101A0905201B09053016815790504
:100870008A059B0540F46093500170935101809369
:100880005201909353018090500190905101A0909B
:100890005201B09053019B01AC01281939094A0952
:1008A0005B0949015A013AEF83169104A104B1048E
:1008B00008F4D5C0609350017093510180935201A8
:1008C00090935301C0920302D0920402E092050279
:1008D000F09206021092070210920802109209028A
:1008E00010920A028091FB019091FC01A091FD0100
:1008F000B091FE018093FF0190930002A09301024A
:10090000B09302020E9401026093FB017093FC010C
:100910008093FD019093FE010E9401026093F70114
:100920007093F8018093F9019093FA010E940102FB
:100930004B015C0164E271E08091370290913802D2
:100940000E9436022AE041E050E060E070E08091D1
:100950003702909138020E944B026BE271E0809165
:100960003702909138020E9436022AE0B501A401B4
:1009700080913702909138020E944B026DE271E043
:1009800080913702909138020E9436028091FB01DB
:100990009091FC01A091FD01B091FE01B501A4016F
:1009A000481B590B6A0B7B0B2AE080913702909110
:1009B00038020E944B026DE271E080913702909103
:1009C00038020E9436024091FB015091FC01609177
:1009D000FD017091FE018091FF0190910002A091B4
:1009E0000102B0910202481B590B6A0B7B0B2AE0F3
:1009F00080913702909138020E944B026FE271E0C1
:100A000080913702909138020E9436020E940102C2
:100A1000AB01BC012AE080913702909138020E941C
:100A20004B02A0903702B090380261E371E0C5013B
:100A30000E94360261E271E0C5010E94360262E066
:100A400070E080E090E00E940D020E94010260933D
:100A5000FB017093FC018093FD019093FE01809156
:100A60004F01882329F10E94010280904B01909050
:100A70004C01A0904D01B0904E01DC01CB018819D2
:100A80009909AA09BB09883843E19407A105B10572
:100A900048F427E0B695A795979587952A95D1F7BD
:100AA000817003C010924F0180E00E9487003EC019
:100AB00020E038E040E050E0BA01C0937C00809133
:100AC0007A00806480937A0080917A0086FDFCCF62
:100AD00080917800E091790090E09E2B092E000C27
:100AE000AA0BBB0B480F591F6A1F7B1F21503109EE
:100AF00021F74115584466407105C0F0D0934F016D
:100B00000E94010260934B0170934C0180934D0150
:100B100090934E0168E371E088E591E00E9436020F
:100B200061E271E088E591E00E9436020E94F701DF
:100B30007DCEA1E21A2EAA1BBB1BFD010DC0AA1F70
:100B4000BB1FEE1FFF1FA217B307E407F50720F036
:100B5000A21BB30BE40BF50B661F771F881F991FB1
:100B60001A9469F760957095809590959B01AC01FA
:100B7000BD01CF010895EE0FFF1F0590F491E02D08
:100B8000099481E090E0F8940C94C605F894FFCFA6
:100B9000000000008E01F7002601D5015701350144
:100BA0004901564D4450565F317C315F564D44509B
:100BB000560D0A00564D4450455F003A323A007CCB
:100BC000005F564D44504500446F6F7262656C6C17
:020BD000210002
:00000001FF
