:100000000C945D000C9485000C9485000C94850084
:100010000C9485000C9485000C9485000C9485004C
:100020000C9485000C9485000C9485000C9485003C
:100030000C9485000C9485000C9485000C9485002C
:100040000C947C020C9485000C944A020C942402BB
:100050000C9485000C9485000C9485000C9485000C
:100060000C9485000C9485000000000024002700FB
:100070002A0000000000250028002B0004040404CE
:100080000404040402020202020203030303030342
:10009000010204081020408001020408102001021F
:1000A00004081020000000080002010000030407FB
:1000B0000000000000000000C60211241FBECFEFA8
:1000C000D8E0DEBFCDBF28E0A8E3B1E001C01D92BB
:1000D000AB30B207E1F711E0A0E0B1E0E6E4FBE00D
:1000E00002C005900D92A833B107D9F710E0CDE515
:1000F000D0E004C02197FE010E949605CC35D107BF
:10010000C9F70E9405030C94A1050C940000CF923E
:10011000DF92EF92FF920F931F93CF93DF936C01C7
:100120007A018B01C0E0D0E0CE15DF0589F0D8015F
:100130006D918D01D601ED91FC910190F081E02D42
:10014000C6010995892B11F47E0102C02196ECCFDE
:10015000C701DF91CF911F910F91FF90EF90DF903A
:10016000CF900895089580E090E00895FC01538DAC
:10017000448D252F30E0842F90E0821B930B541781
:1001800010F0CF96089501970895FC01918D828D0E
:10019000981761F0828DDF01A80FB11D5D968C91DB
:1001A000928D9F5F9F73928F90E008958FEF9FEFE6
:1001B0000895FC01918D828D981731F0828DE80FA2
:1001C000F11D858D90E008958FEF9FEF0895FC015C
:1001D000918D228D892F90E0805C9F4F821B910929
:1001E0008F739927089586E297E00E94E70021E047
:1001F000892B09F420E0822F0895FC01848DDF0112
:10020000A80FB11DA35ABF4F2C91848D90E0019689
:100210008F739927848FA689B7892C93A089B18978
:100220008C9180648C93938D848D981306C0028882
:10023000F389E02D80818F7D80830895EF92FF9276
:100240000F931F93CF93DF93EC0181E0888F9B8DF9
:100250008C8D981305C0E889F989808185FD24C0BB
:10026000F62E0B8D10E00F5F1F4F0F731127E02E3E
:100270008C8DE8120CC00FB607FCFACFE889F9891B
:10028000808185FFF5CFCE010E94FD00F1CF8B8DDF
:10029000FE01E80FF11DE35AFF4FF0820B8FEA8950
:1002A000FB898081806207C0EE89FF896083E889CD
:1002B000F98980818064808381E090E0DF91CF9133
:1002C0001F910F91FF90EF900895CF93DF93EC0172
:1002D000888D8823C9F0EA89FB89808185FD05C066
:1002E000A889B9898C9186FD0FC00FB607FCF5CFA0
:1002F000808185FFF2CFA889B9898C9185FFEDCFE8
:10030000CE010E94FD00E7CFDF91CF91089580E0FC
:1003100090E0892B29F00E94F30081110C940000D9
:1003200008952FB7F89460913D0170913E0180913E
:100330003F01909140012FBF08958F929F92AF92FD
:10034000BF92CF92DF92EF92FF926B017C010E94ED
:1003500091014B015C01C60ED71EE81EF91E0E94DA
:100360009101681579058A059B0528F0C616D70600
:10037000E806F906A0F7FF90EF90DF90CF90BF90CE
:10038000AF909F908F9008950E949C056115710514
:1003900079F0FB0101900020E9F73197AF01461B8E
:1003A000570BDC01ED91FC910280F381E02D099463
:1003B00080E090E008954F925F926F927F92EF926B
:1003C000FF920F931F93CF93DF93CDB7DEB7A19723
:1003D0000FB6F894DEBF0FBECDBF7C01FA01CB0192
:1003E00019A2223008F42AE08E010F5D1F4F422E21
:1003F000512C612C712CBF01A30192010E94740544
:10040000F901CA01015011096A3014F4605D01C09C
:10041000695CD8016C93232B242B252B61F7B80141
:10042000C7010E94C601A1960FB6F894DEBF0FBEA9
:10043000CDBFDF91CF911F910F91FF90EF907F90F3
:100440006F905F904F9008951F920F920FB60F928A
:1004500011242F933F934F935F936F937F938F93C9
:100460009F93AF93BF93EF93FF9386E297E00E9431
:10047000FD00FF91EF91BF91AF919F918F917F917F
:100480006F915F914F913F912F910F900FBE0F9001
:100490001F9018951F920F920FB60F9211242F9351
:1004A0008F939F93EF93FF93E0913607F091370777
:1004B0008081E0913C07F0913D0782FD12C0908160
:1004C00080913F078F5F8F7320914007821751F013
:1004D000E0913F07F0E0EA5DF84F958F80933F078A
:1004E00001C08081FF91EF919F918F912F910F908B
:1004F0000FBE0F901F9018951F920F920FB60F927C
:1005000011242F933F938F939F93AF93BF93809129
:100510003D0190913E01A0913F01B0914001309189
:100520003C0123E0230F2D3720F40196A11DB11DBE
:1005300005C026E8230F0296A11DB11D20933C01A2
:1005400080933D0190933E01A0933F01B093400101
:100550008091380190913901A0913A01B0913B010D
:100560000196A11DB11D8093380190933901A0938C
:100570003A01B0933B01BF91AF919F918F913F9111
:100580002F910F900FBE0F901F901895E6E2F7E0A5
:100590001382128288EE93E0A0E0B0E0848395831A
:1005A000A683B78384E091E09183808385EC90E01B
:1005B0009587848784EC90E09787868780EC90E02D
:1005C000918B808B81EC90E0938B828B82EC90E01E
:1005D000958B848B86EC90E0978B868B118E128E98
:1005E000138E148EE3ECF7E01682178210861186C4
:1005F000128613861486158616861786108A118A27
:10060000128A138A148A158A0895789484B58260B0
:1006100084BD84B5816084BD85B5826085BD85B5A6
:10062000816085BD80916E00816080936E00109224
:10063000810080918100826080938100809181009F
:100640008160809381008091800081608093800030
:100650008091B10084608093B1008091B00081608E
:100660008093B00080917A00846080937A008091BA
:100670007A00826080937A0080917A008160809312
:100680007A0080917A00806880937A001092C1008D
:1006900010920708109208081092090810920A0890
:1006A0001092C5071092C6071092C7071092C8078C
:1006B00068EB7BE080E090E00E949D0186E297E09D
:1006C0009093060880930508E0913607F09137076C
:1006D00082E08083E0913207F09133071082E0914D
:1006E0003407F091350780E1808310923E07E09156
:1006F0003A07F0913B0786E08083E0913807F0915C
:100700003907808180618083E0913807F091390753
:10071000808188608083E0913807F091390780817B
:1007200080688083E0913807F091390780818F7D60
:1007300080830E9491016093C5077093C6078093E0
:10074000C7079093C80762E171E080910508909116
:1007500006080E94C6016AE070E080E090E00E9416
:100760009D0181E08093D907CDE9D0E0FE0124917D
:1007700009E810E0F8018491882399F090E0880F4F
:10078000991FFC01E859FF4FA591B4918E589F4FD6
:10079000FC01459154918FB7F8949C91292B2C938F
:1007A0008FBF24EF822E99249394A12CB12C77240F
:1007B000739431EBC32E30E0D32E40E4642E0E94BC
:1007C0009101672B682B692B41F40E9491016230E3
:1007D00071058105910508F40AC10E949101609399
:1007E0002207709323078093240790932507209175
:1007F0001E0730911F074091200750912107621773
:1008000073078407950740F460931E0770931F07D2
:10081000809320079093210720911E0730911F0796
:1008200040912007509121071B012C01221A330A05
:10083000440A550AA20191012A3F3105410551059B
:1008400008F4D5C060931E0770931F07809320079C
:10085000909321078092D1079092D207A092D3075C
:10086000B092D4071092D5071092D6071092D707EE
:100870001092D8078091C9079091CA07A091CB0721
:10088000B091CC078093CD079093CE07A093CF076C
:10089000B093D0070E9491016093C9077093CA0773
:1008A0008093CB079093CC070E9491016093C5077A
:1008B0007093C6078093C7079093C8070E94910161
:1008C0001B012C0164E271E08091050890910608FB
:1008D0000E94C6012AE041E050E060E070E08091B3
:1008E0000508909106080E94DB016BE271E080919F
:1008F0000508909106080E94C6012AE0B201A101F4
:1009000080910508909106080E94DB016DE271E07C
:1009100080910508909106080E94C6018091C90740
:100920009091CA07A091CB07B091CC07B201A10169
:10093000481B590B6A0B7B0B2AE0809105089091AC
:1009400006080E94DB016DE271E08091050890913C
:1009500006080E94C6014091C9075091CA076091DC
:10096000CB077091CC078091CD079091CE07A091D5
:10097000CF07B091D007481B590B6A0B7B0B2AE0BD
:1009800080910508909106080E94DB016FE271E0FA
:1009900080910508909106080E94C6010E9491016D
:1009A000AB01BC012AE080910508909106080E94E5
:1009B000DB01E0900508F090060861E371E0C701F3
:1009C0000E94C60161E271E0C7010E94C60162E0B7
:1009D00070E080E090E00E949D010E949101609390
:1009E000C9077093CA078093CB079093CC072091D7
:1009F0001D07272520931D07F6019491FE01849180
:100A0000F8013491332309F43DC0992339F193302F
:100A100091F038F49130A9F0923001F594B59F7DB2
:100A200012C0973091F09830A1F09430B9F49091C1
:100A300080009F7D03C0909180009F7790938000FD
:100A40000DC094B59F7794BD09C09091B0009F7779
:100A500003C09091B0009F7D9093B000E32FF0E031
:100A6000EE0FFF1FEE58FF4FA591B4919FB7F8947A
:100A7000211104C02C918095822302C02C91822BDD
:100A80008C939FBF81E4E82E81E0F82EF7016092FD
:100A90007C0080917A00806480937A0080917A0053
:100AA00086FDFCCF8091780090917900819387E05A
:100AB000ED31F80761F7F70141917F0150E060E007
:100AC00070E02AE086E297E00E94DB0162E271E0DA
:100AD00086E297E00E94C601FDE1EF16F7E0FF060F
:100AE00051F70E9487016BCEA1E21A2EAA1BBB1BF5
:100AF000FD010DC0AA1FBB1FEE1FFF1FA217B307EA
:100B0000E407F50720F0A21BB30BE40BF50B661FFF
:100B1000771F881F991F1A9469F7609570958095C3
:100B200090959B01AC01BD01CF010895EE0FFF1F11
:100B30000590F491E02D099481E090E0F8940C94F4
:060B4000A105F894FFCFAF
:100B4600000000001E018700B6006501E700C50031
:100B5600D900564D4450565F317C315F564D445056
:100B6600560D0A00564D4450455F003A323A007C15
:080B7600005F564D445045009C
:00000001FF
