:100000000C945D000C9485000C9485000C94850084
:100010000C9485000C9485000C9485000C9485004C
:100020000C9485000C9485000C9485000C9485003C
:100030000C9485000C9485000C9485000C9485002C
:100040000C9433020C9485000C9401020C94DB0197
:100050000C9485000C9485000C9485000C9485000C
:100060000C9485000C9485000000000024002700FB
:100070002A0000000000250028002B0004040404CE
:100080000404040402020202020203030303030342
:10009000010204081020408001020408102001021F
:1000A00004081020000000080002010000030407FB
:1000B0000000000000000000900311241FBECFEFDD
:1000C000D8E0DEBFCDBF11E0A0E0B1E0E4E9F7E0A9
:1000D00002C005900D92A032B107D9F721E0A0E24D
:1000E000B1E001C01D92AB3CB207E1F710E0CDE5F5
:1000F000D0E004C02197FE010E94BD03CC35D1079A
:10010000C9F70E947D020C94C8030C940000E1EB37
:10011000F0E02491EDE9F0E09491E9E8F0E0E49179
:10012000EE2309F43BC0222339F1233091F038F457
:100130002130A9F0223001F524B52F7D12C02730DF
:1001400091F02830A1F02430B9F4209180002F7D67
:1001500003C0209180002F77209380000DC024B52C
:100160002F7724BD09C02091B0002F7703C02091C4
:10017000B0002F7D2093B000F0E0EE0FFF1FEE588F
:10018000FF4FA591B4912FB7F894EC91811103C062
:1001900090959E2301C09E2B9C932FBF0895CF92D4
:1001A000DF92EF92FF920F931F93CF93DF936C0137
:1001B0007A018B01C0E0D0E0CE15DF0589F0D801CF
:1001C0006D918D01D601ED91FC910190F081E02DB2
:1001D000C6010995892B11F47E0102C02196ECCF4E
:1001E000C701DF91CF911F910F91FF90EF90DF90AA
:1001F000CF900895089580E090E00895FC01538D1C
:10020000448D252F30E0842F90E0821B930B5417F0
:1002100010F0CF96089501970895FC01918D828D7D
:10022000981761F0828DDF01A80FB11D5D968C914A
:10023000928D9F5F9F73928F90E008958FEF9FEF55
:100240000895FC01918D828D981731F0828DE80F11
:10025000F11D858D90E008958FEF9FEF0895FC01CB
:10026000918D228D892F90E0805C9F4F821B910998
:100270008F739927089589E291E00E942F0121E070
:10028000892B09F420E0822F0895FC01848DDF0181
:10029000A80FB11DA35ABF4F2C91848D90E00196F9
:1002A0008F739927848FA689B7892C93A089B189E8
:1002B0008C9180648C93938D848D981306C00288F2
:1002C000F389E02D80818F7D80830895EF92FF92E6
:1002D0000F931F93CF93DF93EC0181E0888F9B8D69
:1002E0008C8D981305C0E889F989808185FD24C02B
:1002F000F62E0B8D10E00F5F1F4F0F731127E02EAE
:100300008C8DE8120CC00FB607FCFACFE889F9898A
:10031000808185FFF5CFCE010E944501F1CF8B8D05
:10032000FE01E80FF11DE35AFF4FF0820B8FEA89BF
:10033000FB898081806207C0EE89FF896083E8893C
:10034000F98980818064808381E090E0DF91CF91A2
:100350001F910F91FF90EF900895CF93DF93EC01E1
:10036000888D8823C9F0EA89FB89808185FD05C0D5
:10037000A889B9898C9186FD0FC00FB607FCF5CF0F
:10038000808185FFF2CFA889B9898C9185FFEDCF57
:10039000CE010E944501E7CFDF91CF91089580E023
:1003A00090E0892B29F00E943B0181110C94000000
:1003B00008950E94C3031F920F920FB60F9211244B
:1003C0002F933F934F935F936F937F938F939F935D
:1003D000AF93BF93EF93FF9389E291E00E944501B1
:1003E000FF91EF91BF91AF919F918F917F916F910D
:1003F0005F914F913F912F910F900FBE0F901F90E3
:1004000018951F920F920FB60F9211242F938F936E
:100410009F93EF93FF93E0913901F0913A0180812E
:10042000E0913F01F091400182FD12C090818091E6
:1004300042018F5F8F7320914301821751F0E09149
:100440004201F0E0E75DFE4F958F8093420101C0CD
:100450008081FF91EF919F918F912F910F900FBE0F
:100460000F901F9018951F920F920FB60F921124A4
:100470002F933F938F939F93AF93BF9380912501C9
:1004800090912601A0912701B0912801309124017B
:1004900023E0230F2D3720F40196A11DB11D05C0C7
:1004A00026E8230F0296A11DB11D209324018093FD
:1004B000250190932601A0932701B09328018091F4
:1004C000200190912101A0912201B0912301019678
:1004D000A11DB11D8093200190932101A0932201C1
:1004E000B0932301BF91AF919F918F913F912F9135
:1004F0000F900FBE0F901F901895789484B582606E
:1005000084BD84B5816084BD85B5826085BD85B5B7
:10051000816085BD80916E00816080936E00109235
:1005200081008091810082608093810080918100B0
:100530008160809381008091800081608093800041
:100540008091B10084608093B1008091B00081609F
:100550008093B00080917A00846080937A008091CB
:100560007A00826080937A0080917A008160809323
:100570007A0080917A00806880937A001092C1009E
:10058000EDE9F0E02491E9E8F0E08491882399F026
:1005900090E0880F991FFC01E859FF4FA591B49195
:1005A000FC01EE58FF4F859194918FB7F894EC9130
:1005B000E22BEC938FBFE0913901F0913A0182E098
:1005C0008083E0913501F09136011082E09137018E
:1005D000F09138018FEC808310924101E0913D0150
:1005E000F0913E0186E08083E0913B01F0913C0177
:1005F000808180618083E0913B01F0913C018081AA
:1006000088608083E0913B01F0913C0180818068AB
:100610008083E0913B01F0913C0180818F7D80835C
:10062000C0E4D1E08091CA01882361F12FB7F8942A
:100630008091250190912601A0912701B091280178
:100640002FBF4091C6015091C7016091C8017091C0
:10065000C901841B950BA60BB70B883823E19207C1
:10066000A105B10548F427E0B695A795979587951C
:100670002A95D1F7817003C01092CA0180E00E94D0
:1006800087004BC020E038E040E050E0BA01C09362
:100690007C0080917A00806480937A0080917A0057
:1006A00086FDFCCF80917800E091790090E09E2B50
:1006B000092E000CAA0BBB0B480F591F6A1F7B1F8A
:1006C0002150310921F7411558446640710528F140
:1006D000D093CA012FB7F8948091250190912601FB
:1006E000A0912701B09128012FBF8093C60190935C
:1006F000C701A093C801B093C90149E050E062E18D
:1007000071E089E291E00E94CF0042E050E06CE1AC
:1007100071E089E291E00E94CF000E94CF0182CF78
:10072000E9E2F1E01382128288EE93E0A0E0B0E00B
:1007300084839583A683B78384E091E0918380834B
:1007400085EC90E09587848784EC90E09787868796
:1007500080EC90E0918B808B81EC90E0938B828B8E
:1007600082EC90E0958B848B86EC90E0978B868B67
:10077000118E128E138E148E0895EE0FFF1F0590AA
:10078000F491E02D099481E090E0F8940C94C80372
:04079000F894FFCF0B
:10079400000000006601CF00FE00AD012F010D0135
:1007A4002101446F6F7262656C6C21000D0A0000B8
:00000001FF
